{
  "contractName": "AuctionSystem",
  "abi": [
    {
      "inputs": [],
      "name": "ReentrancyGuardReentrantCall",
      "type": "error"
    },
    {
      "anonymous": false,
      "inputs": [
        {
          "indexed": true,
          "internalType": "uint256",
          "name": "id",
          "type": "uint256"
        },
        {
          "indexed": false,
          "internalType": "string",
          "name": "itemName",
          "type": "string"
        },
        {
          "indexed": false,
          "internalType": "uint256",
          "name": "startPrice",
          "type": "uint256"
        }
      ],
      "name": "AuctionCreated",
      "type": "event"
    },
    {
      "anonymous": false,
      "inputs": [
        {
          "indexed": true,
          "internalType": "uint256",
          "name": "id",
          "type": "uint256"
        },
        {
          "indexed": false,
          "internalType": "address",
          "name": "winner",
          "type": "address"
        },
        {
          "indexed": false,
          "internalType": "uint256",
          "name": "amount",
          "type": "uint256"
        }
      ],
      "name": "AuctionEnded",
      "type": "event"
    },
    {
      "anonymous": false,
      "inputs": [
        {
          "indexed": true,
          "internalType": "uint256",
          "name": "id",
          "type": "uint256"
        },
        {
          "indexed": false,
          "internalType": "address",
          "name": "bidder",
          "type": "address"
        },
        {
          "indexed": false,
          "internalType": "uint256",
          "name": "amount",
          "type": "uint256"
        }
      ],
      "name": "BidPlaced",
      "type": "event"
    },
    {
      "inputs": [],
      "name": "auctionCount",
      "outputs": [
        {
          "internalType": "uint256",
          "name": "",
          "type": "uint256"
        }
      ],
      "stateMutability": "view",
      "type": "function",
      "constant": true
    },
    {
      "inputs": [
        {
          "internalType": "uint256",
          "name": "",
          "type": "uint256"
        }
      ],
      "name": "auctions",
      "outputs": [
        {
          "internalType": "string",
          "name": "itemName",
          "type": "string"
        },
        {
          "internalType": "uint256",
          "name": "startPrice",
          "type": "uint256"
        },
        {
          "internalType": "address payable",
          "name": "owner",
          "type": "address"
        },
        {
          "internalType": "address",
          "name": "highestBidder",
          "type": "address"
        },
        {
          "internalType": "uint256",
          "name": "highestBid",
          "type": "uint256"
        },
        {
          "internalType": "bool",
          "name": "ended",
          "type": "bool"
        }
      ],
      "stateMutability": "view",
      "type": "function",
      "constant": true
    },
    {
      "inputs": [
        {
          "internalType": "uint256",
          "name": "",
          "type": "uint256"
        },
        {
          "internalType": "address",
          "name": "",
          "type": "address"
        }
      ],
      "name": "bids",
      "outputs": [
        {
          "internalType": "uint256",
          "name": "",
          "type": "uint256"
        }
      ],
      "stateMutability": "view",
      "type": "function",
      "constant": true
    },
    {
      "inputs": [
        {
          "internalType": "string",
          "name": "_itemName",
          "type": "string"
        },
        {
          "internalType": "uint256",
          "name": "_startPrice",
          "type": "uint256"
        }
      ],
      "name": "createAuction",
      "outputs": [],
      "stateMutability": "nonpayable",
      "type": "function"
    },
    {
      "inputs": [
        {
          "internalType": "uint256",
          "name": "_id",
          "type": "uint256"
        }
      ],
      "name": "placeBid",
      "outputs": [],
      "stateMutability": "payable",
      "type": "function",
      "payable": true
    },
    {
      "inputs": [
        {
          "internalType": "uint256",
          "name": "_id",
          "type": "uint256"
        }
      ],
      "name": "endAuction",
      "outputs": [],
      "stateMutability": "nonpayable",
      "type": "function"
    },
    {
      "inputs": [
        {
          "internalType": "uint256",
          "name": "_id",
          "type": "uint256"
        }
      ],
      "name": "getAuction",
      "outputs": [
        {
          "internalType": "string",
          "name": "itemName",
          "type": "string"
        },
        {
          "internalType": "uint256",
          "name": "startPrice",
          "type": "uint256"
        },
        {
          "internalType": "address",
          "name": "highestBidder",
          "type": "address"
        },
        {
          "internalType": "uint256",
          "name": "highestBid",
          "type": "uint256"
        },
        {
          "internalType": "bool",
          "name": "ended",
          "type": "bool"
        }
      ],
      "stateMutability": "view",
      "type": "function",
      "constant": true
    },
    {
      "inputs": [],
      "name": "getAuctionCount",
      "outputs": [
        {
          "internalType": "uint256",
          "name": "",
          "type": "uint256"
        }
      ],
      "stateMutability": "view",
      "type": "function",
      "constant": true
    }
  ],
  "bytecode": "0x608060405234801561000f575f80fd5b5060015f81905550611512806100245f395ff3fe60806040526004361061007a575f3560e01c80639979ef451161004d5780639979ef4514610165578063b9a2de3a14610181578063c44e6640146101a9578063ff895239146101d35761007a565b80632ad715731461007e5780633f1ffcec146100a8578063571a26a0146100e457806378bd793514610125575b5f80fd5b348015610089575f80fd5b506100926101fb565b60405161009f9190610b7c565b60405180910390f35b3480156100b3575f80fd5b506100ce60048036038101906100c99190610c21565b610201565b6040516100db9190610b7c565b60405180910390f35b3480156100ef575f80fd5b5061010a60048036038101906101059190610c5f565b610221565b60405161011c96959493929190610d5d565b60405180910390f35b348015610130575f80fd5b5061014b60048036038101906101469190610c5f565b610329565b60405161015c959493929190610dc3565b60405180910390f35b61017f600480360381019061017a9190610c5f565b610423565b005b34801561018c575f80fd5b506101a760048036038101906101a29190610c5f565b6106d2565b005b3480156101b4575f80fd5b506101bd61092d565b6040516101ca9190610b7c565b60405180910390f35b3480156101de575f80fd5b506101f960048036038101906101f49190610e7c565b610936565b005b60015481565b6003602052815f5260405f20602052805f5260405f205f91509150505481565b6002602052805f5260405f205f91509050805f01805461024090610f06565b80601f016020809104026020016040519081016040528092919081815260200182805461026c90610f06565b80156102b75780601f1061028e576101008083540402835291602001916102b7565b820191905f5260205f20905b81548152906001019060200180831161029a57829003601f168201915b505050505090806001015490806002015f9054906101000a900473ffffffffffffffffffffffffffffffffffffffff1690806003015f9054906101000a900473ffffffffffffffffffffffffffffffffffffffff1690806004015490806005015f9054906101000a900460ff16905086565b60605f805f805f60025f8881526020019081526020015f209050805f018160010154826003015f9054906101000a900473ffffffffffffffffffffffffffffffffffffffff168360040154846005015f9054906101000a900460ff1684805461039190610f06565b80601f01602080910402602001604051908101604052809291908181526020018280546103bd90610f06565b80156104085780601f106103df57610100808354040283529160200191610408565b820191905f5260205f20905b8154815290600101906020018083116103eb57829003601f168201915b50505050509450955095509550955095505091939590929450565b8060025f8281526020019081526020015f206005015f9054906101000a900460ff1615610485576040517f08c379a000000000000000000000000000000000000000000000000000000000815260040161047c90610f80565b60405180910390fd5b61048d610b17565b5f60025f8481526020019081526020015f209050806001015434116104e7576040517f08c379a00000000000000000000000000000000000000000000000000000000081526004016104de90610fe8565b60405180910390fd5b8060040154341161052d576040517f08c379a000000000000000000000000000000000000000000000000000000000815260040161052490611050565b60405180910390fd5b5f73ffffffffffffffffffffffffffffffffffffffff16816003015f9054906101000a900473ffffffffffffffffffffffffffffffffffffffff1673ffffffffffffffffffffffffffffffffffffffff16146105ef57806003015f9054906101000a900473ffffffffffffffffffffffffffffffffffffffff1673ffffffffffffffffffffffffffffffffffffffff166108fc826004015490811502906040515f60405180830381858888f193505050501580156105ed573d5f803e3d5ffd5b505b34816004018190555033816003015f6101000a81548173ffffffffffffffffffffffffffffffffffffffff021916908373ffffffffffffffffffffffffffffffffffffffff1602179055503460035f8581526020019081526020015f205f3373ffffffffffffffffffffffffffffffffffffffff1673ffffffffffffffffffffffffffffffffffffffff1681526020019081526020015f2081905550827f0e54eff26401bf69b81b26f60bd85ef47f5d85275c1d268d84f68d6897431c4733346040516106bd92919061106e565b60405180910390a2506106ce610b5b565b5050565b8060025f8281526020019081526020015f206002015f9054906101000a900473ffffffffffffffffffffffffffffffffffffffff1673ffffffffffffffffffffffffffffffffffffffff163373ffffffffffffffffffffffffffffffffffffffff1614610774576040517f08c379a000000000000000000000000000000000000000000000000000000000815260040161076b906110df565b60405180910390fd5b61077c610b17565b5f60025f8481526020019081526020015f209050806005015f9054906101000a900460ff16156107e1576040517f08c379a00000000000000000000000000000000000000000000000000000000081526004016107d890611147565b60405180910390fd5b6001816005015f6101000a81548160ff0219169083151502179055505f73ffffffffffffffffffffffffffffffffffffffff16816003015f9054906101000a900473ffffffffffffffffffffffffffffffffffffffff1673ffffffffffffffffffffffffffffffffffffffff16146108bf57806002015f9054906101000a900473ffffffffffffffffffffffffffffffffffffffff1673ffffffffffffffffffffffffffffffffffffffff166108fc826004015490811502906040515f60405180830381858888f193505050501580156108bd573d5f803e3d5ffd5b505b827fd2aa34a4fdbbc6dff6a3e56f46e0f3ae2a31d7785ff3487aa5c95c642acea501826003015f9054906101000a900473ffffffffffffffffffffffffffffffffffffffff16836004015460405161091892919061106e565b60405180910390a250610929610b5b565b5050565b5f600154905090565b60015f81548092919061094890611192565b91905055506040518060c0016040528084848080601f0160208091040260200160405190810160405280939291908181526020018383808284375f81840152601f19601f8201169050808301925050505050505081526020018281526020013373ffffffffffffffffffffffffffffffffffffffff1681526020015f73ffffffffffffffffffffffffffffffffffffffff1681526020015f81526020015f151581525060025f60015481526020019081526020015f205f820151815f019081610a1191906113a3565b50602082015181600101556040820151816002015f6101000a81548173ffffffffffffffffffffffffffffffffffffffff021916908373ffffffffffffffffffffffffffffffffffffffff1602179055506060820151816003015f6101000a81548173ffffffffffffffffffffffffffffffffffffffff021916908373ffffffffffffffffffffffffffffffffffffffff1602179055506080820151816004015560a0820151816005015f6101000a81548160ff0219169083151502179055509050506001547f71ec34891b539684f9d6a8e102eaab1a9aebc42e3c7a517ed2a3e911f2695044848484604051610b0a939291906114ac565b60405180910390a2505050565b60025f5403610b52576040517f3ee5aeb500000000000000000000000000000000000000000000000000000000815260040160405180910390fd5b60025f81905550565b60015f81905550565b5f819050919050565b610b7681610b64565b82525050565b5f602082019050610b8f5f830184610b6d565b92915050565b5f80fd5b5f80fd5b610ba681610b64565b8114610bb0575f80fd5b50565b5f81359050610bc181610b9d565b92915050565b5f73ffffffffffffffffffffffffffffffffffffffff82169050919050565b5f610bf082610bc7565b9050919050565b610c0081610be6565b8114610c0a575f80fd5b50565b5f81359050610c1b81610bf7565b92915050565b5f8060408385031215610c3757610c36610b95565b5b5f610c4485828601610bb3565b9250506020610c5585828601610c0d565b9150509250929050565b5f60208284031215610c7457610c73610b95565b5b5f610c8184828501610bb3565b91505092915050565b5f81519050919050565b5f82825260208201905092915050565b5f5b83811015610cc1578082015181840152602081019050610ca6565b5f8484015250505050565b5f601f19601f8301169050919050565b5f610ce682610c8a565b610cf08185610c94565b9350610d00818560208601610ca4565b610d0981610ccc565b840191505092915050565b5f610d1e82610bc7565b9050919050565b610d2e81610d14565b82525050565b610d3d81610be6565b82525050565b5f8115159050919050565b610d5781610d43565b82525050565b5f60c0820190508181035f830152610d758189610cdc565b9050610d846020830188610b6d565b610d916040830187610d25565b610d9e6060830186610d34565b610dab6080830185610b6d565b610db860a0830184610d4e565b979650505050505050565b5f60a0820190508181035f830152610ddb8188610cdc565b9050610dea6020830187610b6d565b610df76040830186610d34565b610e046060830185610b6d565b610e116080830184610d4e565b9695505050505050565b5f80fd5b5f80fd5b5f80fd5b5f8083601f840112610e3c57610e3b610e1b565b5b8235905067ffffffffffffffff811115610e5957610e58610e1f565b5b602083019150836001820283011115610e7557610e74610e23565b5b9250929050565b5f805f60408486031215610e9357610e92610b95565b5b5f84013567ffffffffffffffff811115610eb057610eaf610b99565b5b610ebc86828701610e27565b93509350506020610ecf86828701610bb3565b9150509250925092565b7f4e487b71000000000000000000000000000000000000000000000000000000005f52602260045260245ffd5b5f6002820490506001821680610f1d57607f821691505b602082108103610f3057610f2f610ed9565b5b50919050565b7f41756374696f6e20616c72656164792066696e616c697a6564000000000000005f82015250565b5f610f6a601983610c94565b9150610f7582610f36565b602082019050919050565b5f6020820190508181035f830152610f9781610f5e565b9050919050565b7f4269642062656c6f77207374617274696e6720707269636500000000000000005f82015250565b5f610fd2601883610c94565b9150610fdd82610f9e565b602082019050919050565b5f6020820190508181035f830152610fff81610fc6565b9050919050565b7f4d757374206f75746269642063757272656e74206269640000000000000000005f82015250565b5f61103a601783610c94565b915061104582611006565b602082019050919050565b5f6020820190508181035f8301526110678161102e565b9050919050565b5f6040820190506110815f830185610d34565b61108e6020830184610b6d565b9392505050565b7f4e6f74207468652061756374696f6e206f776e657200000000000000000000005f82015250565b5f6110c9601583610c94565b91506110d482611095565b602082019050919050565b5f6020820190508181035f8301526110f6816110bd565b9050919050565b7f416c726561647920656e646564000000000000000000000000000000000000005f82015250565b5f611131600d83610c94565b915061113c826110fd565b602082019050919050565b5f6020820190508181035f83015261115e81611125565b9050919050565b7f4e487b71000000000000000000000000000000000000000000000000000000005f52601160045260245ffd5b5f61119c82610b64565b91507fffffffffffffffffffffffffffffffffffffffffffffffffffffffffffffffff82036111ce576111cd611165565b5b600182019050919050565b7f4e487b71000000000000000000000000000000000000000000000000000000005f52604160045260245ffd5b5f819050815f5260205f209050919050565b5f6020601f8301049050919050565b5f82821b905092915050565b5f600883026112627fffffffffffffffffffffffffffffffffffffffffffffffffffffffffffffffff82611227565b61126c8683611227565b95508019841693508086168417925050509392505050565b5f819050919050565b5f6112a76112a261129d84610b64565b611284565b610b64565b9050919050565b5f819050919050565b6112c08361128d565b6112d46112cc826112ae565b848454611233565b825550505050565b5f90565b6112e86112dc565b6112f38184846112b7565b505050565b5b818110156113165761130b5f826112e0565b6001810190506112f9565b5050565b601f82111561135b5761132c81611206565b61133584611218565b81016020851015611344578190505b61135861135085611218565b8301826112f8565b50505b505050565b5f82821c905092915050565b5f61137b5f1984600802611360565b1980831691505092915050565b5f611393838361136c565b9150826002028217905092915050565b6113ac82610c8a565b67ffffffffffffffff8111156113c5576113c46111d9565b5b6113cf8254610f06565b6113da82828561131a565b5f60209050601f83116001811461140b575f84156113f9578287015190505b6114038582611388565b86555061146a565b601f19841661141986611206565b5f5b828110156114405784890151825560018201915060208501945060208101905061141b565b8683101561145d5784890151611459601f89168261136c565b8355505b6001600288020188555050505b505050505050565b828183375f83830152505050565b5f61148b8385610c94565b9350611498838584611472565b6114a183610ccc565b840190509392505050565b5f6040820190508181035f8301526114c5818587611480565b90506114d46020830184610b6d565b94935050505056fea26469706673582212207438be0deae95b4ba264c83dacf3cbfcab66a26ae2589ff504b921157d57613164736f6c63430008140033",
  "immutableReferences": {},
  "source": "// SPDX-License-Identifier: MIT\npragma solidity ^0.8.20;\n\nimport \"@openzeppelin/contracts/utils/ReentrancyGuard.sol\";\n\ncontract AuctionSystem is ReentrancyGuard {\n    struct Auction {\n        string itemName;\n        uint256 startPrice;\n        address payable owner;\n        address highestBidder;\n        uint256 highestBid;\n        bool ended;\n    }\n\n    uint256 public auctionCount;\n    mapping(uint256 => Auction) public auctions;\n    mapping(uint256 => mapping(address => uint256)) public bids;\n\n    event AuctionCreated(uint256 indexed id, string itemName, uint256 startPrice);\n    event BidPlaced(uint256 indexed id, address bidder, uint256 amount);\n    event AuctionEnded(uint256 indexed id, address winner, uint256 amount);\n\n    modifier onlyOwner(uint256 _id) {\n        require(msg.sender == auctions[_id].owner, \"Not the auction owner\");\n        _;\n    }\n\n    modifier auctionActive(uint256 _id) {\n        require(!auctions[_id].ended, \"Auction already finalized\");\n        _;\n    }\n\n    function createAuction(string calldata _itemName, uint256 _startPrice) external {\n        auctionCount++;\n        auctions[auctionCount] = Auction({\n            itemName: _itemName,\n            startPrice: _startPrice,\n            owner: payable(msg.sender),\n            highestBidder: address(0),\n            highestBid: 0,\n            ended: false\n        });\n\n        emit AuctionCreated(auctionCount, _itemName, _startPrice);\n    }\n\n    function placeBid(uint256 _id) external payable auctionActive(_id) nonReentrant {\n        Auction storage auction = auctions[_id];\n        require(msg.value > auction.startPrice, \"Bid below starting price\");\n        require(msg.value > auction.highestBid, \"Must outbid current bid\");\n\n        if (auction.highestBidder != address(0)) {\n            payable(auction.highestBidder).transfer(auction.highestBid);\n        }\n\n        auction.highestBid = msg.value;\n        auction.highestBidder = msg.sender;\n\n        bids[_id][msg.sender] = msg.value;\n\n        emit BidPlaced(_id, msg.sender, msg.value);\n    }\n\n    function endAuction(uint256 _id) external onlyOwner(_id) nonReentrant {\n        Auction storage auction = auctions[_id];\n        require(!auction.ended, \"Already ended\");\n\n        auction.ended = true;\n\n        if (auction.highestBidder != address(0)) {\n            auction.owner.transfer(auction.highestBid);\n        }\n\n        emit AuctionEnded(_id, auction.highestBidder, auction.highestBid);\n    }\n\n    function getAuction(uint256 _id) external view returns (\n        string memory itemName,\n        uint256 startPrice,\n        address highestBidder,\n        uint256 highestBid,\n        bool ended\n    ) {\n        Auction storage auction = auctions[_id];\n        return (\n            auction.itemName,\n            auction.startPrice,\n            auction.highestBidder,\n            auction.highestBid,\n            auction.ended\n        );\n    }\n\n    function getAuctionCount() public view returns (uint) {\n        return auctionCount;\n    }\n}\n",
  "sourcePath": "/Users/vanshkhandelwal/Desktop/Auction project/backend/contracts/AuctionSystem.sol",
  "compiler": {
    "name": "solc",
    "version": "0.8.20+commit.a1b79de6.Emscripten.clang"
  },
  "schemaVersion": "3.4.16",
  "updatedAt": "2025-04-23T23:16:30.227Z",
  "networkType": "ethereum",
  "devdoc": {
    "errors": {
      "ReentrancyGuardReentrantCall()": [
        {
          "details": "Unauthorized reentrant call."
        }
      ]
    },
    "kind": "dev",
    "methods": {},
    "version": 1
  },
  "userdoc": {
    "kind": "user",
    "methods": {},
    "version": 1
  }
}